:020000020000FC
:0C0000000C94E1010C94E5020C94F40255
:10005C000C94450208E321D04CD008E31ED040D0CC
:10006C0008E31BD008E319D008E017D001E015D045
:10007C0006E013D00CE011D00FEF00BB01B9002744
:10008C0001BB02B9089509D00591003011F00DD0D3
:10009C00FBCF0895005D09D0089501BB21D0169ABD
:1000AC001FD016981DD00BD0089501BB179A18D0ED
:1000BC00169A16D0169814D0179801D008950F934D
:1000CC00002700BB01BB159A0BD0169A09D00FB1B3
:1000DC00169807FDF9CF15980FEF00BB0F910895F7
:1000EC008F939F939FE08CE90197F1F79F918F91EC
:1000FC000895F6DFF5DFF4DFF3DFF2DF089500EFAC
:10010C0000930A0108951F932F933F934F935F938E
:10011C003FEE11271430B9F030930B010FEF0A9515
:10012C00F1F7009109010F700F3051F041E02227D7
:10013C00243031F0502F542341F0440F2395F8CF45
:10014C00331F1395E7CF002717C0133041F023302E
:10015C0049F0022F000F020F010F0F5C0DC001E4DC
:10016C00020F0AC00AE2103039F000E3113021F01E
:10017C0003E2123009F000275F914F913F912F91CC
:10018C001F910895EF93FF931F93EF93FF93102FFD
:10019C00E0910702E130C1F0E09108021E17A1F0D6
:1001AC00EAE0F2E0E00F0027F01F01E0008300918D
:1001BC000902003049F4E09108021E1714F0F1E036
:1001CC0001C0FFEFF0930902FF91EF911F91FF9196
:1001DC00EF910895EF93FF93EAE0F2E000910802AB
:1001EC00E00F0027F01F0081FF91EF910895EF932E
:1001FC00FF930F93EAE0F2E000910802E00F002772
:10020C00F01F00E000830F91FF91EF910895EF93A1
:10021C00FF930F931F932F933F93EAE0F2E0002795
:10022C0011272191222309F001E013951A30C9F707
:10023C00003019F40093090221C00FEF109108024D
:10024C002227EAE0F2E0E10FF21F10308CF01A30B6
:10025C007CF42081203011F001E00AC020910902C9
:10026C00213019F41395319602C01A953197EDCFC0
:10027C00209109022002202D209309023F912F91F9
:10028C001F910F91FF91EF9108950F931F932F934F
:10029C00EF93FF9300910702013041F4EEEAF3E093
:1002AC00F2DE00ECE8EBF3E0EEDE02C00AD11BD18B
:1002BC0008ECF3DE06E4F9DE00910802EBDE04E460
:1002CC00F4DE00910902013019F405E5EEDE07C0F9
:1002DC00003019F403E5E9DE02C004E4E6DE02E4D2
:1002EC00E4DEEAE0F2E0002711272227019100303A
:1002FC0011F0012FCFDE13951A30C1F7112700E250
:10030C00D4DE13951A30D9F70091070208B9FF9182
:10031C00EF912F911F910F9108955CDF013009F43B
:10032C0066DF75DF08950F931F93009108021091FB
:10033C000902010F009308021F910F910895EDDF40
:10034C00F2DF0895EF93FF930F931F932F9310E019
:10035C0000E000930902EAE0F2E00A3018F411938D
:10036C000395FBCF2F911F910F91FF91EF91089562
:10037C00594D6F7600004E4D6F760000466C723A08
:10038C0020004F20446F6F7200004320446F6F7247
:10039C000000446F6F72204F0000446F6F72204357
:1003AC000000456D657267656E63790043616C6C26
:1003BC0020303030000001E20EBF0FEF0DBF0FEF09
:1003CC0007B90DB947DE9BDEBDDF00E000930002EC
:1003DC00009308020093070201E0009301020093CE
:1003EC00040200E0009302020093030200E004BD4B
:1003FC0005E005BD01E000936E0002E0086000938B
:10040C00690001E002600DBB78947DDE003069F478
:10041C00109105021395109305021436D1F411278F
:10042C00109305021093060214C0109106021130AD
:10043C0081F011E0109306020A3271F00A3348F48D
:10044C00003338F0005320910802021711F09ADEA5
:10045C001CDFDBCF74DFD9CF00910702003059F4D9
:10046C0071DF00910802003011F000E08BDE01E03A
:10047C0000930702CACF00E0009307029CCF0F93B2
:10048C000FB70F930091020203950C3321F44DD05A
:10049C0075D0FBDE00E0009302020F910FBF0F91AD
:1004AC0018950F93EF93FF930BE8E8E8F3E0EBDD7F
:1004BC000FE8F3DD00910802EDDDFF91EF910F9154
:1004CC0008950F93EF93FF9300910002013021F4F4
:1004DC00ECE7F3E0D8DD03C0E2E8F3E0D4DDFF9114
:1004EC00EF910F9108950F93EF93FF9300910102F9
:1004FC00003049F0013061F0023079F007E8E6EAAB
:10050C00F3E0C1DD0EC007E8EEE8F3E0BCDD09C0A6
:10051C0007E8EEE9F3E0B7DD04C007E8E6E9F3E04D
:10052C00B2DDFF91EF910F9108950F931F932F93CD
:10053C003F93109100023091040220910902203067
:10054C00A1F03395113069F431307CF043DE013089
:10055C0019F0E9DE30E009C0E0DEE5DE10E030E065
:10056C0004C0353011F411E030E0109300023093E8
:10057C0004023F912F911F910F9108950F931F9398
:10058C002F9300910402109100022091010211306E
:10059C0011F423E00EC0103061F4003029F001306A
:1005AC0029F0043029F005C020E003C021E001C08F
:1005BC0022E0209301022F911F910F9108950F9328
:1005CC0000EF08B900910102013031F403E000930F
:1005DC00040202E3009302020F9118950F930FE0AF
:1005EC0008B900910102013019F0023009F006C07F
:1005FC000FEF0093040202E3009302020F9118958F
:10060C000F930FE00EB90F9108950F9300E00EB900
:04061C000F9108959D
:00000001FF
